:060000000A128A11122809
:10000800FE00030E83120313AB000408AC000A08B9
:10001800AD007F08AE000A128A11C0280A128A11A0
:10002800152883120313B401B501B601B701830182
:100038000A128A116E2AFF1B292883137F18831737
:100048000008840A0319FF0A080000308A0004081F
:10005800840A8207003449346E3467347234653454
:1000680073346534203463346134723461346334F6
:10007800743465347234203441345334433449344D
:1000880049342034703461347234613420346D342E
:100098006F34733474347234613472343A342034C3
:1000A8000A34003445346C342034763461346C348A
:1000B8006F3472342034643465346C3420347034D2
:1000C8006F34743465346E34633469346F346D342A
:1000D8006534743472346F342034653473343A348C
:1000E80020340A3400340A3420344D3465346E34F4
:1000F80075342C342034533465346C3465346334AB
:10010800633469346F346E34653420346F3470343A
:10011800633469346F346E3420340D340A34003457
:1001280061342E3420344C346534653472342034D0
:1001380070346F34743465346E34633469346F34B6
:100148006D346534743472346F3420340D340A34A9
:10015800003462342E34203445346E3476346934B5
:10016800613472342034413453344334493449348B
:1001780020340D340A3400340C1FC328C428C7287F
:100188001E08B6000C138C1ECA28CB2813291A087F
:10019800B50061303506031DD228D328F728360864
:1001A800A900AA012908A4002A08A5000A30A60067
:1001B8000030A70037300A128A11E7220A128A1182
:1001C8002830F0008030F1000A128A11C1220A1288
:1001D8008A113730F0000030F1000A128A11C1226A
:1001E8000A128A110E2962303506031DFC28FD28E3
:1001F8000E290130F0008030F1000A128A11C12264
:100208000A128A11831203138C1E0B290C29062942
:100218001A0886000A128A110B230A128A118316F9
:1002280003130C1E182919292D29831203130C1ED8
:100238001E291F292D293408031D232924292D2986
:100248000A128A110B230A128A1183120313B401AA
:10025800B40A83122E08FF002D088A002C08840097
:100268002B0E8300FE0E7E0E090083120313A300DB
:100278007908A1007808A0007B08F1007A08F0004E
:100288002108F3002008F2000A128A11F0210A124C
:100298008A11710883120313A1007008A0000130AD
:1002A800FC007C08A30720082104031D5C295D29A4
:1002B800402923088400831380010130A3027B08AE
:1002C800F1007A08F0007908F3007808F2000A12C1
:1002D8008A1134220A128A11700883120313A200A9
:1002E8007B08F1007A08F0007908F3007808F2003A
:1002F8000A128A11F0210A128A117108F90070088D
:10030800F8000A30831203132202031C8C298D295A
:1003180091290730FC007C08A2073030FC007C08DB
:10032800A207230884002208831380000130A30257
:1003380078087904031DA129A22963290130FC004A
:100348007C08A3070800831203132F080139B100A2
:10035800B10DB10D1F083106FB3931069F00300879
:10036800B2002F08B100320DB20CB10C31080139BE
:10037800B300B30DB30DB30D1F083306F7393306B9
:100388009F003008B2002F08B100320DB20CB10C3A
:10039800320DB20CB10C31080139B300B30E1F088D
:1003A8003306EF3933069F003008B2002F08B1003A
:1003B800320DB20CB10C320DB20CB10C320DB20CC4
:1003C800B10C31080139B300B30EB30D1F08330661
:1003D800DF3933069F000800F501F6017008710443
:1003E8000319F729F8292F2AF701F70A062A0130F5
:1003F8000310F00DF10DFF3E031DFC290130F40040
:100408007408F707F11F092A0A2AFB29013003108B
:10041800F50DF60DFF3E031D0B2A71087302031D2F
:10042800172A70087202031C1A2A1B2A222A70082B
:10043800F2027108031CF303F30275140130031070
:10044800F10CF00CFF3E031D232A0130F702031DB7
:100458002E2A2F2A0A2A7608F1007508F0000800CB
:10046800700871040319392A3A2A692AF501F50A2C
:10047800482A01300310F00DF10DFF3E031D3E2AFE
:100488000130F4007408F507F11F4B2A4C2A3D2A65
:1004980071087302031D522A70087202031C552A40
:1004A800562A5C2A7008F2027108031CF303F3024F
:1004B80001300310F10CF00CFF3E031D5D2A0130E2
:1004C800F502031D682A692A4C2A7308F10072088C
:1004D800F00008000A128A119B220A128A110A12D5
:1004E8008A115B230A128A1100300A128A113F23EB
:1004F8000A128A11003083120313AF00B0000A12E7
:100508008A11A7210A128A110A128A1127230A12AC
:100518008A110A128A1164230A128A110A128A118C
:100528004E230A128A11922A0A128A1112280130BD
:100538008316031788008901013083160313850089
:100548008312031385018316031386018312031391
:100558008601831603138701831203138701831609
:1005680003138801831203138801831603130F08EA
:100578008F3960388F000F140800D62A0C1EC52A40
:10058800C62AC22A7108FF00700884000A128A115C
:100598001F200A128A1199000130F0070318F10A86
:1005A8000030F107710883120313FF0070088400FC
:1005B8000A128A111F200A128A11003A031DE52A1D
:1005C800E62AC22A080083120313A800A51FED2AF1
:1005D800EE2AFC2A280884002D308313800001307D
:1005E800FD007D08A807A409A509A40A0319A50AFE
:1005F8002508F9002408F8002708FB002608FA0057
:1006080028080A128A1139210A128A110800493069
:10061800F0008030F1000A128A11C1220A128A11F0
:100628006630F0008030F1000A128A11C1220A12E5
:100638008A117F30F0008030F1000A128A11C1223D
:100648000A128A110800831603139A0119309900B7
:100658008312031398178316031398168312031330
:1006680018168316031318121815981518138312E1
:1006780003131813080083120313AF0081309F007F
:100688002F0C83160313031C9F1303189F179F1225
:100698001F120800831203139F1C532B542B552B36
:1006A8005A2B9F18582B592B552B9F14080083122F
:1006B80003130C13831603130C170B178B1708005F
:0A06C800831603138C160C160800AD
:08400000FF3FFF3FFF3FFF3FC0
:04400E00D420FF3F7C
:00000001FF
